{
  "_format": "hh-sol-artifact-1",
  "contractName": "MemberNFT",
  "sourceName": "contracts/MemberNFT.sol",
  "abi": [
    {
      "inputs": [],
      "stateMutability": "nonpayable",
      "type": "constructor"
    },
    {
      "anonymous": false,
      "inputs": [
        {
          "indexed": true,
          "internalType": "address",
          "name": "owner",
          "type": "address"
        },
        {
          "indexed": true,
          "internalType": "address",
          "name": "approved",
          "type": "address"
        },
        {
          "indexed": true,
          "internalType": "uint256",
          "name": "tokenId",
          "type": "uint256"
        }
      ],
      "name": "Approval",
      "type": "event"
    },
    {
      "anonymous": false,
      "inputs": [
        {
          "indexed": true,
          "internalType": "address",
          "name": "owner",
          "type": "address"
        },
        {
          "indexed": true,
          "internalType": "address",
          "name": "operator",
          "type": "address"
        },
        {
          "indexed": false,
          "internalType": "bool",
          "name": "approved",
          "type": "bool"
        }
      ],
      "name": "ApprovalForAll",
      "type": "event"
    },
    {
      "anonymous": false,
      "inputs": [
        {
          "indexed": true,
          "internalType": "address",
          "name": "previousOwner",
          "type": "address"
        },
        {
          "indexed": true,
          "internalType": "address",
          "name": "newOwner",
          "type": "address"
        }
      ],
      "name": "OwnershipTransferred",
      "type": "event"
    },
    {
      "anonymous": false,
      "inputs": [
        {
          "indexed": true,
          "internalType": "address",
          "name": "to",
          "type": "address"
        },
        {
          "indexed": true,
          "internalType": "uint256",
          "name": "tokenId",
          "type": "uint256"
        },
        {
          "indexed": false,
          "internalType": "string",
          "name": "uri",
          "type": "string"
        }
      ],
      "name": "TokenURIChanged",
      "type": "event"
    },
    {
      "anonymous": false,
      "inputs": [
        {
          "indexed": true,
          "internalType": "address",
          "name": "from",
          "type": "address"
        },
        {
          "indexed": true,
          "internalType": "address",
          "name": "to",
          "type": "address"
        },
        {
          "indexed": true,
          "internalType": "uint256",
          "name": "tokenId",
          "type": "uint256"
        }
      ],
      "name": "Transfer",
      "type": "event"
    },
    {
      "inputs": [
        {
          "internalType": "address",
          "name": "to",
          "type": "address"
        },
        {
          "internalType": "uint256",
          "name": "tokenId",
          "type": "uint256"
        }
      ],
      "name": "approve",
      "outputs": [],
      "stateMutability": "nonpayable",
      "type": "function"
    },
    {
      "inputs": [
        {
          "internalType": "address",
          "name": "owner",
          "type": "address"
        }
      ],
      "name": "balanceOf",
      "outputs": [
        {
          "internalType": "uint256",
          "name": "",
          "type": "uint256"
        }
      ],
      "stateMutability": "view",
      "type": "function"
    },
    {
      "inputs": [
        {
          "internalType": "uint256",
          "name": "tokenId",
          "type": "uint256"
        }
      ],
      "name": "getApproved",
      "outputs": [
        {
          "internalType": "address",
          "name": "",
          "type": "address"
        }
      ],
      "stateMutability": "view",
      "type": "function"
    },
    {
      "inputs": [
        {
          "internalType": "address",
          "name": "owner",
          "type": "address"
        },
        {
          "internalType": "address",
          "name": "operator",
          "type": "address"
        }
      ],
      "name": "isApprovedForAll",
      "outputs": [
        {
          "internalType": "bool",
          "name": "",
          "type": "bool"
        }
      ],
      "stateMutability": "view",
      "type": "function"
    },
    {
      "inputs": [],
      "name": "name",
      "outputs": [
        {
          "internalType": "string",
          "name": "",
          "type": "string"
        }
      ],
      "stateMutability": "view",
      "type": "function"
    },
    {
      "inputs": [
        {
          "internalType": "address",
          "name": "to",
          "type": "address"
        },
        {
          "internalType": "string",
          "name": "uri",
          "type": "string"
        }
      ],
      "name": "nftMint",
      "outputs": [],
      "stateMutability": "nonpayable",
      "type": "function"
    },
    {
      "inputs": [],
      "name": "owner",
      "outputs": [
        {
          "internalType": "address",
          "name": "",
          "type": "address"
        }
      ],
      "stateMutability": "view",
      "type": "function"
    },
    {
      "inputs": [
        {
          "internalType": "uint256",
          "name": "tokenId",
          "type": "uint256"
        }
      ],
      "name": "ownerOf",
      "outputs": [
        {
          "internalType": "address",
          "name": "",
          "type": "address"
        }
      ],
      "stateMutability": "view",
      "type": "function"
    },
    {
      "inputs": [],
      "name": "renounceOwnership",
      "outputs": [],
      "stateMutability": "nonpayable",
      "type": "function"
    },
    {
      "inputs": [
        {
          "internalType": "address",
          "name": "from",
          "type": "address"
        },
        {
          "internalType": "address",
          "name": "to",
          "type": "address"
        },
        {
          "internalType": "uint256",
          "name": "tokenId",
          "type": "uint256"
        }
      ],
      "name": "safeTransferFrom",
      "outputs": [],
      "stateMutability": "nonpayable",
      "type": "function"
    },
    {
      "inputs": [
        {
          "internalType": "address",
          "name": "from",
          "type": "address"
        },
        {
          "internalType": "address",
          "name": "to",
          "type": "address"
        },
        {
          "internalType": "uint256",
          "name": "tokenId",
          "type": "uint256"
        },
        {
          "internalType": "bytes",
          "name": "data",
          "type": "bytes"
        }
      ],
      "name": "safeTransferFrom",
      "outputs": [],
      "stateMutability": "nonpayable",
      "type": "function"
    },
    {
      "inputs": [
        {
          "internalType": "address",
          "name": "operator",
          "type": "address"
        },
        {
          "internalType": "bool",
          "name": "approved",
          "type": "bool"
        }
      ],
      "name": "setApprovalForAll",
      "outputs": [],
      "stateMutability": "nonpayable",
      "type": "function"
    },
    {
      "inputs": [
        {
          "internalType": "bytes4",
          "name": "interfaceId",
          "type": "bytes4"
        }
      ],
      "name": "supportsInterface",
      "outputs": [
        {
          "internalType": "bool",
          "name": "",
          "type": "bool"
        }
      ],
      "stateMutability": "view",
      "type": "function"
    },
    {
      "inputs": [],
      "name": "symbol",
      "outputs": [
        {
          "internalType": "string",
          "name": "",
          "type": "string"
        }
      ],
      "stateMutability": "view",
      "type": "function"
    },
    {
      "inputs": [
        {
          "internalType": "uint256",
          "name": "index",
          "type": "uint256"
        }
      ],
      "name": "tokenByIndex",
      "outputs": [
        {
          "internalType": "uint256",
          "name": "",
          "type": "uint256"
        }
      ],
      "stateMutability": "view",
      "type": "function"
    },
    {
      "inputs": [
        {
          "internalType": "address",
          "name": "owner",
          "type": "address"
        },
        {
          "internalType": "uint256",
          "name": "index",
          "type": "uint256"
        }
      ],
      "name": "tokenOfOwnerByIndex",
      "outputs": [
        {
          "internalType": "uint256",
          "name": "",
          "type": "uint256"
        }
      ],
      "stateMutability": "view",
      "type": "function"
    },
    {
      "inputs": [
        {
          "internalType": "uint256",
          "name": "tokenId",
          "type": "uint256"
        }
      ],
      "name": "tokenURI",
      "outputs": [
        {
          "internalType": "string",
          "name": "",
          "type": "string"
        }
      ],
      "stateMutability": "view",
      "type": "function"
    },
    {
      "inputs": [],
      "name": "totalSupply",
      "outputs": [
        {
          "internalType": "uint256",
          "name": "",
          "type": "uint256"
        }
      ],
      "stateMutability": "view",
      "type": "function"
    },
    {
      "inputs": [
        {
          "internalType": "address",
          "name": "from",
          "type": "address"
        },
        {
          "internalType": "address",
          "name": "to",
          "type": "address"
        },
        {
          "internalType": "uint256",
          "name": "tokenId",
          "type": "uint256"
        }
      ],
      "name": "transferFrom",
      "outputs": [],
      "stateMutability": "nonpayable",
      "type": "function"
    },
    {
      "inputs": [
        {
          "internalType": "address",
          "name": "newOwner",
          "type": "address"
        }
      ],
      "name": "transferOwnership",
      "outputs": [],
      "stateMutability": "nonpayable",
      "type": "function"
    }
  ],
  "bytecode": "0x60806040523480156200001157600080fd5b506040518060400160405280600981526020017f4d656d6265724e465400000000000000000000000000000000000000000000008152506040518060400160405280600381526020017f4d454d0000000000000000000000000000000000000000000000000000000000815250816000908051906020019062000096929190620001a6565b508060019080519060200190620000af929190620001a6565b505050620000d2620000c6620000d860201b60201c565b620000e060201b60201c565b620002bb565b600033905090565b6000600b60009054906101000a900473ffffffffffffffffffffffffffffffffffffffff16905081600b60006101000a81548173ffffffffffffffffffffffffffffffffffffffff021916908373ffffffffffffffffffffffffffffffffffffffff1602179055508173ffffffffffffffffffffffffffffffffffffffff168173ffffffffffffffffffffffffffffffffffffffff167f8be0079c531659141344cd1fd0a4f28419497f9722a3daafe3b4186f6b6457e060405160405180910390a35050565b828054620001b49062000285565b90600052602060002090601f016020900481019282620001d8576000855562000224565b82601f10620001f357805160ff191683800117855562000224565b8280016001018555821562000224579182015b828111156200022357825182559160200191906001019062000206565b5b50905062000233919062000237565b5090565b5b808211156200025257600081600090555060010162000238565b5090565b7f4e487b7100000000000000000000000000000000000000000000000000000000600052602260045260246000fd5b600060028204905060018216806200029e57607f821691505b60208210811415620002b557620002b462000256565b5b50919050565b61348580620002cb6000396000f3fe608060405234801561001057600080fd5b506004361061012c5760003560e01c80636352211e116100ad578063a22cb46511610071578063a22cb46514610343578063b88d4fde1461035f578063c87b56dd1461037b578063e985e9c5146103ab578063f2fde38b146103db5761012c565b80636352211e1461029d57806370a08231146102cd578063715018a6146102fd5780638da5cb5b1461030757806395d89b41146103255761012c565b806323b872dd116100f457806323b872dd146101e95780632f745c591461020557806330e960891461023557806342842e0e146102515780634f6ccce71461026d5761012c565b806301ffc9a71461013157806306fdde0314610161578063081812fc1461017f578063095ea7b3146101af57806318160ddd146101cb575b600080fd5b61014b600480360381019061014691906121f0565b6103f7565b6040516101589190612238565b60405180910390f35b610169610409565b60405161017691906122ec565b60405180910390f35b61019960048036038101906101949190612344565b61049b565b6040516101a691906123b2565b60405180910390f35b6101c960048036038101906101c491906123f9565b6104e1565b005b6101d36105f9565b6040516101e09190612448565b60405180910390f35b61020360048036038101906101fe9190612463565b610606565b005b61021f600480360381019061021a91906123f9565b610666565b60405161022c9190612448565b60405180910390f35b61024f600480360381019061024a919061251b565b61070b565b005b61026b60048036038101906102669190612463565b6107da565b005b61028760048036038101906102829190612344565b6107fa565b6040516102949190612448565b60405180910390f35b6102b760048036038101906102b29190612344565b61086b565b6040516102c491906123b2565b60405180910390f35b6102e760048036038101906102e2919061257b565b61091d565b6040516102f49190612448565b60405180910390f35b6103056109d5565b005b61030f6109e9565b60405161031c91906123b2565b60405180910390f35b61032d610a13565b60405161033a91906122ec565b60405180910390f35b61035d600480360381019061035891906125d4565b610aa5565b005b61037960048036038101906103749190612744565b610abb565b005b61039560048036038101906103909190612344565b610b1d565b6040516103a291906122ec565b60405180910390f35b6103c560048036038101906103c091906127c7565b610b2f565b6040516103d29190612238565b60405180910390f35b6103f560048036038101906103f0919061257b565b610bc3565b005b600061040282610c47565b9050919050565b60606000805461041890612836565b80601f016020809104026020016040519081016040528092919081815260200182805461044490612836565b80156104915780601f1061046657610100808354040283529160200191610491565b820191906000526020600020905b81548152906001019060200180831161047457829003601f168201915b5050505050905090565b60006104a682610cc1565b6004600083815260200190815260200160002060009054906101000a900473ffffffffffffffffffffffffffffffffffffffff169050919050565b60006104ec8261086b565b90508073ffffffffffffffffffffffffffffffffffffffff168373ffffffffffffffffffffffffffffffffffffffff16141561055d576040517f08c379a0000000000000000000000000000000000000000000000000000000008152600401610554906128da565b60405180910390fd5b8073ffffffffffffffffffffffffffffffffffffffff1661057c610d0c565b73ffffffffffffffffffffffffffffffffffffffff1614806105ab57506105aa816105a5610d0c565b610b2f565b5b6105ea576040517f08c379a00000000000000000000000000000000000000000000000000000000081526004016105e19061296c565b60405180910390fd5b6105f48383610d14565b505050565b6000600880549050905090565b610617610611610d0c565b82610dcd565b610656576040517f08c379a000000000000000000000000000000000000000000000000000000000815260040161064d906129fe565b60405180910390fd5b610661838383610e62565b505050565b60006106718361091d565b82106106b2576040517f08c379a00000000000000000000000000000000000000000000000000000000081526004016106a990612a90565b60405180910390fd5b600660008473ffffffffffffffffffffffffffffffffffffffff1673ffffffffffffffffffffffffffffffffffffffff168152602001908152602001600020600083815260200190815260200160002054905092915050565b6107136110c9565b61071d600c611147565b6000610729600c61115d565b9050610735848261116b565b6107838184848080601f016020809104026020016040519081016040528093929190818152602001838380828437600081840152601f19601f82011690508083019250505050505050611345565b808473ffffffffffffffffffffffffffffffffffffffff167f8b781fcc9d1a958b4e7e04390a81f45bdec2dc61341e7b423a537074275dc70d85856040516107cc929190612add565b60405180910390a350505050565b6107f583838360405180602001604052806000815250610abb565b505050565b60006108046105f9565b8210610845576040517f08c379a000000000000000000000000000000000000000000000000000000000815260040161083c90612b73565b60405180910390fd5b6008828154811061085957610858612b93565b5b90600052602060002001549050919050565b6000806002600084815260200190815260200160002060009054906101000a900473ffffffffffffffffffffffffffffffffffffffff169050600073ffffffffffffffffffffffffffffffffffffffff168173ffffffffffffffffffffffffffffffffffffffff161415610914576040517f08c379a000000000000000000000000000000000000000000000000000000000815260040161090b90612c0e565b60405180910390fd5b80915050919050565b60008073ffffffffffffffffffffffffffffffffffffffff168273ffffffffffffffffffffffffffffffffffffffff16141561098e576040517f08c379a000000000000000000000000000000000000000000000000000000000815260040161098590612ca0565b60405180910390fd5b600360008373ffffffffffffffffffffffffffffffffffffffff1673ffffffffffffffffffffffffffffffffffffffff168152602001908152602001600020549050919050565b6109dd6110c9565b6109e760006113b9565b565b6000600b60009054906101000a900473ffffffffffffffffffffffffffffffffffffffff16905090565b606060018054610a2290612836565b80601f0160208091040260200160405190810160405280929190818152602001828054610a4e90612836565b8015610a9b5780601f10610a7057610100808354040283529160200191610a9b565b820191906000526020600020905b815481529060010190602001808311610a7e57829003601f168201915b5050505050905090565b610ab7610ab0610d0c565b838361147f565b5050565b610acc610ac6610d0c565b83610dcd565b610b0b576040517f08c379a0000000000000000000000000000000000000000000000000000000008152600401610b02906129fe565b60405180910390fd5b610b17848484846115ec565b50505050565b6060610b2882611648565b9050919050565b6000600560008473ffffffffffffffffffffffffffffffffffffffff1673ffffffffffffffffffffffffffffffffffffffff16815260200190815260200160002060008373ffffffffffffffffffffffffffffffffffffffff1673ffffffffffffffffffffffffffffffffffffffff16815260200190815260200160002060009054906101000a900460ff16905092915050565b610bcb6110c9565b600073ffffffffffffffffffffffffffffffffffffffff168173ffffffffffffffffffffffffffffffffffffffff161415610c3b576040517f08c379a0000000000000000000000000000000000000000000000000000000008152600401610c3290612d32565b60405180910390fd5b610c44816113b9565b50565b60007f780e9d63000000000000000000000000000000000000000000000000000000007bffffffffffffffffffffffffffffffffffffffffffffffffffffffff1916827bffffffffffffffffffffffffffffffffffffffffffffffffffffffff19161480610cba5750610cb98261175b565b5b9050919050565b610cca8161183d565b610d09576040517f08c379a0000000000000000000000000000000000000000000000000000000008152600401610d0090612c0e565b60405180910390fd5b50565b600033905090565b816004600083815260200190815260200160002060006101000a81548173ffffffffffffffffffffffffffffffffffffffff021916908373ffffffffffffffffffffffffffffffffffffffff160217905550808273ffffffffffffffffffffffffffffffffffffffff16610d878361086b565b73ffffffffffffffffffffffffffffffffffffffff167f8c5be1e5ebec7d5bd14f71427d1e84f3dd0314c0f7b2291e5b200ac8c7c3b92560405160405180910390a45050565b600080610dd98361086b565b90508073ffffffffffffffffffffffffffffffffffffffff168473ffffffffffffffffffffffffffffffffffffffff161480610e1b5750610e1a8185610b2f565b5b80610e5957508373ffffffffffffffffffffffffffffffffffffffff16610e418461049b565b73ffffffffffffffffffffffffffffffffffffffff16145b91505092915050565b8273ffffffffffffffffffffffffffffffffffffffff16610e828261086b565b73ffffffffffffffffffffffffffffffffffffffff1614610ed8576040517f08c379a0000000000000000000000000000000000000000000000000000000008152600401610ecf90612dc4565b60405180910390fd5b600073ffffffffffffffffffffffffffffffffffffffff168273ffffffffffffffffffffffffffffffffffffffff161415610f48576040517f08c379a0000000000000000000000000000000000000000000000000000000008152600401610f3f90612e56565b60405180910390fd5b610f538383836118a9565b610f5e600082610d14565b6001600360008573ffffffffffffffffffffffffffffffffffffffff1673ffffffffffffffffffffffffffffffffffffffff1681526020019081526020016000206000828254610fae9190612ea5565b925050819055506001600360008473ffffffffffffffffffffffffffffffffffffffff1673ffffffffffffffffffffffffffffffffffffffff16815260200190815260200160002060008282546110059190612ed9565b92505081905550816002600083815260200190815260200160002060006101000a81548173ffffffffffffffffffffffffffffffffffffffff021916908373ffffffffffffffffffffffffffffffffffffffff160217905550808273ffffffffffffffffffffffffffffffffffffffff168473ffffffffffffffffffffffffffffffffffffffff167fddf252ad1be2c89b69c2b068fc378daa952ba7f163c4a11628f55a4df523b3ef60405160405180910390a46110c48383836118b9565b505050565b6110d1610d0c565b73ffffffffffffffffffffffffffffffffffffffff166110ef6109e9565b73ffffffffffffffffffffffffffffffffffffffff1614611145576040517f08c379a000000000000000000000000000000000000000000000000000000000815260040161113c90612f7b565b60405180910390fd5b565b6001816000016000828254019250508190555050565b600081600001549050919050565b600073ffffffffffffffffffffffffffffffffffffffff168273ffffffffffffffffffffffffffffffffffffffff1614156111db576040517f08c379a00000000000000000000000000000000000000000000000000000000081526004016111d290612fe7565b60405180910390fd5b6111e48161183d565b15611224576040517f08c379a000000000000000000000000000000000000000000000000000000000815260040161121b90613053565b60405180910390fd5b611230600083836118a9565b6001600360008473ffffffffffffffffffffffffffffffffffffffff1673ffffffffffffffffffffffffffffffffffffffff16815260200190815260200160002060008282546112809190612ed9565b92505081905550816002600083815260200190815260200160002060006101000a81548173ffffffffffffffffffffffffffffffffffffffff021916908373ffffffffffffffffffffffffffffffffffffffff160217905550808273ffffffffffffffffffffffffffffffffffffffff16600073ffffffffffffffffffffffffffffffffffffffff167fddf252ad1be2c89b69c2b068fc378daa952ba7f163c4a11628f55a4df523b3ef60405160405180910390a4611341600083836118b9565b5050565b61134e8261183d565b61138d576040517f08c379a0000000000000000000000000000000000000000000000000000000008152600401611384906130e5565b60405180910390fd5b80600a600084815260200190815260200160002090805190602001906113b49291906120e1565b505050565b6000600b60009054906101000a900473ffffffffffffffffffffffffffffffffffffffff16905081600b60006101000a81548173ffffffffffffffffffffffffffffffffffffffff021916908373ffffffffffffffffffffffffffffffffffffffff1602179055508173ffffffffffffffffffffffffffffffffffffffff168173ffffffffffffffffffffffffffffffffffffffff167f8be0079c531659141344cd1fd0a4f28419497f9722a3daafe3b4186f6b6457e060405160405180910390a35050565b8173ffffffffffffffffffffffffffffffffffffffff168373ffffffffffffffffffffffffffffffffffffffff1614156114ee576040517f08c379a00000000000000000000000000000000000000000000000000000000081526004016114e590613151565b60405180910390fd5b80600560008573ffffffffffffffffffffffffffffffffffffffff1673ffffffffffffffffffffffffffffffffffffffff16815260200190815260200160002060008473ffffffffffffffffffffffffffffffffffffffff1673ffffffffffffffffffffffffffffffffffffffff16815260200190815260200160002060006101000a81548160ff0219169083151502179055508173ffffffffffffffffffffffffffffffffffffffff168373ffffffffffffffffffffffffffffffffffffffff167f17307eab39ab6107e8899845ad3d59bd9653f200f220920489ca2b5937696c31836040516115df9190612238565b60405180910390a3505050565b6115f7848484610e62565b611603848484846118be565b611642576040517f08c379a0000000000000000000000000000000000000000000000000000000008152600401611639906131e3565b60405180910390fd5b50505050565b606061165382610cc1565b6000600a6000848152602001908152602001600020805461167390612836565b80601f016020809104026020016040519081016040528092919081815260200182805461169f90612836565b80156116ec5780601f106116c1576101008083540402835291602001916116ec565b820191906000526020600020905b8154815290600101906020018083116116cf57829003601f168201915b5050505050905060006116fd611a55565b9050600081511415611713578192505050611756565b60008251111561174857808260405160200161173092919061323f565b60405160208183030381529060405292505050611756565b61175184611a6c565b925050505b919050565b60007f80ac58cd000000000000000000000000000000000000000000000000000000007bffffffffffffffffffffffffffffffffffffffffffffffffffffffff1916827bffffffffffffffffffffffffffffffffffffffffffffffffffffffff1916148061182657507f5b5e139f000000000000000000000000000000000000000000000000000000007bffffffffffffffffffffffffffffffffffffffffffffffffffffffff1916827bffffffffffffffffffffffffffffffffffffffffffffffffffffffff1916145b80611836575061183582611ad4565b5b9050919050565b60008073ffffffffffffffffffffffffffffffffffffffff166002600084815260200190815260200160002060009054906101000a900473ffffffffffffffffffffffffffffffffffffffff1673ffffffffffffffffffffffffffffffffffffffff1614159050919050565b6118b4838383611b3e565b505050565b505050565b60006118df8473ffffffffffffffffffffffffffffffffffffffff16611c52565b15611a48578373ffffffffffffffffffffffffffffffffffffffff1663150b7a02611908610d0c565b8786866040518563ffffffff1660e01b815260040161192a94939291906132b8565b602060405180830381600087803b15801561194457600080fd5b505af192505050801561197557506040513d601f19601f820116820180604052508101906119729190613319565b60015b6119f8573d80600081146119a5576040519150601f19603f3d011682016040523d82523d6000602084013e6119aa565b606091505b506000815114156119f0576040517f08c379a00000000000000000000000000000000000000000000000000000000081526004016119e7906131e3565b60405180910390fd5b805181602001fd5b63150b7a0260e01b7bffffffffffffffffffffffffffffffffffffffffffffffffffffffff1916817bffffffffffffffffffffffffffffffffffffffffffffffffffffffff191614915050611a4d565b600190505b949350505050565b606060405180602001604052806000815250905090565b6060611a7782610cc1565b6000611a81611a55565b90506000815111611aa15760405180602001604052806000815250611acc565b80611aab84611c75565b604051602001611abc92919061323f565b6040516020818303038152906040525b915050919050565b60007f01ffc9a7000000000000000000000000000000000000000000000000000000007bffffffffffffffffffffffffffffffffffffffffffffffffffffffff1916827bffffffffffffffffffffffffffffffffffffffffffffffffffffffff1916149050919050565b611b49838383611dd6565b600073ffffffffffffffffffffffffffffffffffffffff168373ffffffffffffffffffffffffffffffffffffffff161415611b8c57611b8781611ddb565b611bcb565b8173ffffffffffffffffffffffffffffffffffffffff168373ffffffffffffffffffffffffffffffffffffffff1614611bca57611bc98382611e24565b5b5b600073ffffffffffffffffffffffffffffffffffffffff168273ffffffffffffffffffffffffffffffffffffffff161415611c0e57611c0981611f91565b611c4d565b8273ffffffffffffffffffffffffffffffffffffffff168273ffffffffffffffffffffffffffffffffffffffff1614611c4c57611c4b8282612062565b5b5b505050565b6000808273ffffffffffffffffffffffffffffffffffffffff163b119050919050565b60606000821415611cbd576040518060400160405280600181526020017f30000000000000000000000000000000000000000000000000000000000000008152509050611dd1565b600082905060005b60008214611cef578080611cd890613346565b915050600a82611ce891906133be565b9150611cc5565b60008167ffffffffffffffff811115611d0b57611d0a612619565b5b6040519080825280601f01601f191660200182016040528015611d3d5781602001600182028036833780820191505090505b5090505b60008514611dca57600182611d569190612ea5565b9150600a85611d6591906133ef565b6030611d719190612ed9565b60f81b818381518110611d8757611d86612b93565b5b60200101907effffffffffffffffffffffffffffffffffffffffffffffffffffffffffffff1916908160001a905350600a85611dc391906133be565b9450611d41565b8093505050505b919050565b505050565b6008805490506009600083815260200190815260200160002081905550600881908060018154018082558091505060019003906000526020600020016000909190919091505550565b60006001611e318461091d565b611e3b9190612ea5565b9050600060076000848152602001908152602001600020549050818114611f20576000600660008673ffffffffffffffffffffffffffffffffffffffff1673ffffffffffffffffffffffffffffffffffffffff168152602001908152602001600020600084815260200190815260200160002054905080600660008773ffffffffffffffffffffffffffffffffffffffff1673ffffffffffffffffffffffffffffffffffffffff168152602001908152602001600020600084815260200190815260200160002081905550816007600083815260200190815260200160002081905550505b6007600084815260200190815260200160002060009055600660008573ffffffffffffffffffffffffffffffffffffffff1673ffffffffffffffffffffffffffffffffffffffff16815260200190815260200160002060008381526020019081526020016000206000905550505050565b60006001600880549050611fa59190612ea5565b9050600060096000848152602001908152602001600020549050600060088381548110611fd557611fd4612b93565b5b906000526020600020015490508060088381548110611ff757611ff6612b93565b5b90600052602060002001819055508160096000838152602001908152602001600020819055506009600085815260200190815260200160002060009055600880548061204657612045613420565b5b6001900381819060005260206000200160009055905550505050565b600061206d8361091d565b905081600660008573ffffffffffffffffffffffffffffffffffffffff1673ffffffffffffffffffffffffffffffffffffffff168152602001908152602001600020600083815260200190815260200160002081905550806007600084815260200190815260200160002081905550505050565b8280546120ed90612836565b90600052602060002090601f01602090048101928261210f5760008555612156565b82601f1061212857805160ff1916838001178555612156565b82800160010185558215612156579182015b8281111561215557825182559160200191906001019061213a565b5b5090506121639190612167565b5090565b5b80821115612180576000816000905550600101612168565b5090565b6000604051905090565b600080fd5b600080fd5b60007fffffffff0000000000000000000000000000000000000000000000000000000082169050919050565b6121cd81612198565b81146121d857600080fd5b50565b6000813590506121ea816121c4565b92915050565b6000602082840312156122065761220561218e565b5b6000612214848285016121db565b91505092915050565b60008115159050919050565b6122328161221d565b82525050565b600060208201905061224d6000830184612229565b92915050565b600081519050919050565b600082825260208201905092915050565b60005b8381101561228d578082015181840152602081019050612272565b8381111561229c576000848401525b50505050565b6000601f19601f8301169050919050565b60006122be82612253565b6122c8818561225e565b93506122d881856020860161226f565b6122e1816122a2565b840191505092915050565b6000602082019050818103600083015261230681846122b3565b905092915050565b6000819050919050565b6123218161230e565b811461232c57600080fd5b50565b60008135905061233e81612318565b92915050565b60006020828403121561235a5761235961218e565b5b60006123688482850161232f565b91505092915050565b600073ffffffffffffffffffffffffffffffffffffffff82169050919050565b600061239c82612371565b9050919050565b6123ac81612391565b82525050565b60006020820190506123c760008301846123a3565b92915050565b6123d681612391565b81146123e157600080fd5b50565b6000813590506123f3816123cd565b92915050565b600080604083850312156124105761240f61218e565b5b600061241e858286016123e4565b925050602061242f8582860161232f565b9150509250929050565b6124428161230e565b82525050565b600060208201905061245d6000830184612439565b92915050565b60008060006060848603121561247c5761247b61218e565b5b600061248a868287016123e4565b935050602061249b868287016123e4565b92505060406124ac8682870161232f565b9150509250925092565b600080fd5b600080fd5b600080fd5b60008083601f8401126124db576124da6124b6565b5b8235905067ffffffffffffffff8111156124f8576124f76124bb565b5b602083019150836001820283011115612514576125136124c0565b5b9250929050565b6000806000604084860312156125345761253361218e565b5b6000612542868287016123e4565b935050602084013567ffffffffffffffff81111561256357612562612193565b5b61256f868287016124c5565b92509250509250925092565b6000602082840312156125915761259061218e565b5b600061259f848285016123e4565b91505092915050565b6125b18161221d565b81146125bc57600080fd5b50565b6000813590506125ce816125a8565b92915050565b600080604083850312156125eb576125ea61218e565b5b60006125f9858286016123e4565b925050602061260a858286016125bf565b9150509250929050565b600080fd5b7f4e487b7100000000000000000000000000000000000000000000000000000000600052604160045260246000fd5b612651826122a2565b810181811067ffffffffffffffff821117156126705761266f612619565b5b80604052505050565b6000612683612184565b905061268f8282612648565b919050565b600067ffffffffffffffff8211156126af576126ae612619565b5b6126b8826122a2565b9050602081019050919050565b82818337600083830152505050565b60006126e76126e284612694565b612679565b90508281526020810184848401111561270357612702612614565b5b61270e8482856126c5565b509392505050565b600082601f83011261272b5761272a6124b6565b5b813561273b8482602086016126d4565b91505092915050565b6000806000806080858703121561275e5761275d61218e565b5b600061276c878288016123e4565b945050602061277d878288016123e4565b935050604061278e8782880161232f565b925050606085013567ffffffffffffffff8111156127af576127ae612193565b5b6127bb87828801612716565b91505092959194509250565b600080604083850312156127de576127dd61218e565b5b60006127ec858286016123e4565b92505060206127fd858286016123e4565b9150509250929050565b7f4e487b7100000000000000000000000000000000000000000000000000000000600052602260045260246000fd5b6000600282049050600182168061284e57607f821691505b6020821081141561286257612861612807565b5b50919050565b7f4552433732313a20617070726f76616c20746f2063757272656e74206f776e6560008201527f7200000000000000000000000000000000000000000000000000000000000000602082015250565b60006128c460218361225e565b91506128cf82612868565b604082019050919050565b600060208201905081810360008301526128f3816128b7565b9050919050565b7f4552433732313a20617070726f76652063616c6c6572206973206e6f7420746f60008201527f6b656e206f776e6572206e6f7220617070726f76656420666f7220616c6c0000602082015250565b6000612956603e8361225e565b9150612961826128fa565b604082019050919050565b6000602082019050818103600083015261298581612949565b9050919050565b7f4552433732313a2063616c6c6572206973206e6f7420746f6b656e206f776e6560008201527f72206e6f7220617070726f766564000000000000000000000000000000000000602082015250565b60006129e8602e8361225e565b91506129f38261298c565b604082019050919050565b60006020820190508181036000830152612a17816129db565b9050919050565b7f455243373231456e756d657261626c653a206f776e657220696e646578206f7560008201527f74206f6620626f756e6473000000000000000000000000000000000000000000602082015250565b6000612a7a602b8361225e565b9150612a8582612a1e565b604082019050919050565b60006020820190508181036000830152612aa981612a6d565b9050919050565b6000612abc838561225e565b9350612ac98385846126c5565b612ad2836122a2565b840190509392505050565b60006020820190508181036000830152612af8818486612ab0565b90509392505050565b7f455243373231456e756d657261626c653a20676c6f62616c20696e646578206f60008201527f7574206f6620626f756e64730000000000000000000000000000000000000000602082015250565b6000612b5d602c8361225e565b9150612b6882612b01565b604082019050919050565b60006020820190508181036000830152612b8c81612b50565b9050919050565b7f4e487b7100000000000000000000000000000000000000000000000000000000600052603260045260246000fd5b7f4552433732313a20696e76616c696420746f6b656e2049440000000000000000600082015250565b6000612bf860188361225e565b9150612c0382612bc2565b602082019050919050565b60006020820190508181036000830152612c2781612beb565b9050919050565b7f4552433732313a2061646472657373207a65726f206973206e6f74206120766160008201527f6c6964206f776e65720000000000000000000000000000000000000000000000602082015250565b6000612c8a60298361225e565b9150612c9582612c2e565b604082019050919050565b60006020820190508181036000830152612cb981612c7d565b9050919050565b7f4f776e61626c653a206e6577206f776e657220697320746865207a65726f206160008201527f6464726573730000000000000000000000000000000000000000000000000000602082015250565b6000612d1c60268361225e565b9150612d2782612cc0565b604082019050919050565b60006020820190508181036000830152612d4b81612d0f565b9050919050565b7f4552433732313a207472616e736665722066726f6d20696e636f72726563742060008201527f6f776e6572000000000000000000000000000000000000000000000000000000602082015250565b6000612dae60258361225e565b9150612db982612d52565b604082019050919050565b60006020820190508181036000830152612ddd81612da1565b9050919050565b7f4552433732313a207472616e7366657220746f20746865207a65726f2061646460008201527f7265737300000000000000000000000000000000000000000000000000000000602082015250565b6000612e4060248361225e565b9150612e4b82612de4565b604082019050919050565b60006020820190508181036000830152612e6f81612e33565b9050919050565b7f4e487b7100000000000000000000000000000000000000000000000000000000600052601160045260246000fd5b6000612eb08261230e565b9150612ebb8361230e565b925082821015612ece57612ecd612e76565b5b828203905092915050565b6000612ee48261230e565b9150612eef8361230e565b9250827fffffffffffffffffffffffffffffffffffffffffffffffffffffffffffffffff03821115612f2457612f23612e76565b5b828201905092915050565b7f4f776e61626c653a2063616c6c6572206973206e6f7420746865206f776e6572600082015250565b6000612f6560208361225e565b9150612f7082612f2f565b602082019050919050565b60006020820190508181036000830152612f9481612f58565b9050919050565b7f4552433732313a206d696e7420746f20746865207a65726f2061646472657373600082015250565b6000612fd160208361225e565b9150612fdc82612f9b565b602082019050919050565b6000602082019050818103600083015261300081612fc4565b9050919050565b7f4552433732313a20746f6b656e20616c7265616479206d696e74656400000000600082015250565b600061303d601c8361225e565b915061304882613007565b602082019050919050565b6000602082019050818103600083015261306c81613030565b9050919050565b7f45524337323155524953746f726167653a2055524920736574206f66206e6f6e60008201527f6578697374656e7420746f6b656e000000000000000000000000000000000000602082015250565b60006130cf602e8361225e565b91506130da82613073565b604082019050919050565b600060208201905081810360008301526130fe816130c2565b9050919050565b7f4552433732313a20617070726f766520746f2063616c6c657200000000000000600082015250565b600061313b60198361225e565b915061314682613105565b602082019050919050565b6000602082019050818103600083015261316a8161312e565b9050919050565b7f4552433732313a207472616e7366657220746f206e6f6e20455243373231526560008201527f63656976657220696d706c656d656e7465720000000000000000000000000000602082015250565b60006131cd60328361225e565b91506131d882613171565b604082019050919050565b600060208201905081810360008301526131fc816131c0565b9050919050565b600081905092915050565b600061321982612253565b6132238185613203565b935061323381856020860161226f565b80840191505092915050565b600061324b828561320e565b9150613257828461320e565b91508190509392505050565b600081519050919050565b600082825260208201905092915050565b600061328a82613263565b613294818561326e565b93506132a481856020860161226f565b6132ad816122a2565b840191505092915050565b60006080820190506132cd60008301876123a3565b6132da60208301866123a3565b6132e76040830185612439565b81810360608301526132f9818461327f565b905095945050505050565b600081519050613313816121c4565b92915050565b60006020828403121561332f5761332e61218e565b5b600061333d84828501613304565b91505092915050565b60006133518261230e565b91507fffffffffffffffffffffffffffffffffffffffffffffffffffffffffffffffff82141561338457613383612e76565b5b600182019050919050565b7f4e487b7100000000000000000000000000000000000000000000000000000000600052601260045260246000fd5b60006133c98261230e565b91506133d48361230e565b9250826133e4576133e361338f565b5b828204905092915050565b60006133fa8261230e565b91506134058361230e565b9250826134155761341461338f565b5b828206905092915050565b7f4e487b7100000000000000000000000000000000000000000000000000000000600052603160045260246000fdfea264697066735822122073d118f2feb00ad46fe86a285d5f27674ec16fd4da87fe62243d43d0bf3222a564736f6c63430008090033",
  "linkReferences": {},
  "deployedLinkReferences": {}
}