{
  "_format": "hh-sol-artifact-1",
  "contractName": "TokenBank",
  "sourceName": "contracts/TokenBank.sol",
  "abi": [
    {
      "inputs": [
        {
          "internalType": "string",
          "name": "name_",
          "type": "string"
        },
        {
          "internalType": "string",
          "name": "symbol_",
          "type": "string"
        },
        {
          "internalType": "address",
          "name": "nftContract_",
          "type": "address"
        }
      ],
      "stateMutability": "nonpayable",
      "type": "constructor"
    },
    {
      "anonymous": false,
      "inputs": [
        {
          "indexed": true,
          "internalType": "address",
          "name": "from",
          "type": "address"
        },
        {
          "indexed": false,
          "internalType": "uint256",
          "name": "amount",
          "type": "uint256"
        }
      ],
      "name": "TokenDeposit",
      "type": "event"
    },
    {
      "anonymous": false,
      "inputs": [
        {
          "indexed": true,
          "internalType": "address",
          "name": "from",
          "type": "address"
        },
        {
          "indexed": true,
          "internalType": "address",
          "name": "to",
          "type": "address"
        },
        {
          "indexed": false,
          "internalType": "uint256",
          "name": "amount",
          "type": "uint256"
        }
      ],
      "name": "TokenTransfer",
      "type": "event"
    },
    {
      "anonymous": false,
      "inputs": [
        {
          "indexed": true,
          "internalType": "address",
          "name": "from",
          "type": "address"
        },
        {
          "indexed": false,
          "internalType": "uint256",
          "name": "amount",
          "type": "uint256"
        }
      ],
      "name": "TokenWithdraw",
      "type": "event"
    },
    {
      "inputs": [
        {
          "internalType": "address",
          "name": "account",
          "type": "address"
        }
      ],
      "name": "balanceOf",
      "outputs": [
        {
          "internalType": "uint256",
          "name": "",
          "type": "uint256"
        }
      ],
      "stateMutability": "view",
      "type": "function"
    },
    {
      "inputs": [
        {
          "internalType": "address",
          "name": "account",
          "type": "address"
        }
      ],
      "name": "bankBalanceOf",
      "outputs": [
        {
          "internalType": "uint256",
          "name": "",
          "type": "uint256"
        }
      ],
      "stateMutability": "view",
      "type": "function"
    },
    {
      "inputs": [],
      "name": "bankTotalDeposit",
      "outputs": [
        {
          "internalType": "uint256",
          "name": "",
          "type": "uint256"
        }
      ],
      "stateMutability": "view",
      "type": "function"
    },
    {
      "inputs": [
        {
          "internalType": "uint256",
          "name": "amount",
          "type": "uint256"
        }
      ],
      "name": "deposit",
      "outputs": [],
      "stateMutability": "nonpayable",
      "type": "function"
    },
    {
      "inputs": [],
      "name": "memberToken",
      "outputs": [
        {
          "internalType": "contract MemberToken",
          "name": "",
          "type": "address"
        }
      ],
      "stateMutability": "view",
      "type": "function"
    },
    {
      "inputs": [],
      "name": "name",
      "outputs": [
        {
          "internalType": "string",
          "name": "",
          "type": "string"
        }
      ],
      "stateMutability": "view",
      "type": "function"
    },
    {
      "inputs": [],
      "name": "owner",
      "outputs": [
        {
          "internalType": "address",
          "name": "",
          "type": "address"
        }
      ],
      "stateMutability": "view",
      "type": "function"
    },
    {
      "inputs": [],
      "name": "symbol",
      "outputs": [
        {
          "internalType": "string",
          "name": "",
          "type": "string"
        }
      ],
      "stateMutability": "view",
      "type": "function"
    },
    {
      "inputs": [],
      "name": "totalSupply",
      "outputs": [
        {
          "internalType": "uint256",
          "name": "",
          "type": "uint256"
        }
      ],
      "stateMutability": "pure",
      "type": "function"
    },
    {
      "inputs": [
        {
          "internalType": "address",
          "name": "to",
          "type": "address"
        },
        {
          "internalType": "uint256",
          "name": "amount",
          "type": "uint256"
        }
      ],
      "name": "transfer",
      "outputs": [],
      "stateMutability": "nonpayable",
      "type": "function"
    },
    {
      "inputs": [
        {
          "internalType": "uint256",
          "name": "amount",
          "type": "uint256"
        }
      ],
      "name": "withdraw",
      "outputs": [],
      "stateMutability": "nonpayable",
      "type": "function"
    }
  ],
  "bytecode": "0x60806040523480156200001157600080fd5b5060405162001a1238038062001a1283398181016040528101906200003791906200040d565b82600190805190602001906200004f9291906200015b565b508160029080519060200190620000689291906200015b565b5033600460006101000a81548173ffffffffffffffffffffffffffffffffffffffff021916908373ffffffffffffffffffffffffffffffffffffffff1602179055506103e860056000600460009054906101000a900473ffffffffffffffffffffffffffffffffffffffff1673ffffffffffffffffffffffffffffffffffffffff1673ffffffffffffffffffffffffffffffffffffffff16815260200190815260200160002081905550806000806101000a81548173ffffffffffffffffffffffffffffffffffffffff021916908373ffffffffffffffffffffffffffffffffffffffff1602179055505050506200050c565b8280546200016990620004d6565b90600052602060002090601f0160209004810192826200018d5760008555620001d9565b82601f10620001a857805160ff1916838001178555620001d9565b82800160010185558215620001d9579182015b82811115620001d8578251825591602001919060010190620001bb565b5b509050620001e89190620001ec565b5090565b5b8082111562000207576000816000905550600101620001ed565b5090565b6000604051905090565b600080fd5b600080fd5b600080fd5b600080fd5b6000601f19601f8301169050919050565b7f4e487b7100000000000000000000000000000000000000000000000000000000600052604160045260246000fd5b620002748262000229565b810181811067ffffffffffffffff821117156200029657620002956200023a565b5b80604052505050565b6000620002ab6200020b565b9050620002b9828262000269565b919050565b600067ffffffffffffffff821115620002dc57620002db6200023a565b5b620002e78262000229565b9050602081019050919050565b60005b8381101562000314578082015181840152602081019050620002f7565b8381111562000324576000848401525b50505050565b6000620003416200033b84620002be565b6200029f565b90508281526020810184848401111562000360576200035f62000224565b5b6200036d848285620002f4565b509392505050565b600082601f8301126200038d576200038c6200021f565b5b81516200039f8482602086016200032a565b91505092915050565b600073ffffffffffffffffffffffffffffffffffffffff82169050919050565b6000620003d582620003a8565b9050919050565b620003e781620003c8565b8114620003f357600080fd5b50565b6000815190506200040781620003dc565b92915050565b60008060006060848603121562000429576200042862000215565b5b600084015167ffffffffffffffff8111156200044a57620004496200021a565b5b620004588682870162000375565b935050602084015167ffffffffffffffff8111156200047c576200047b6200021a565b5b6200048a8682870162000375565b92505060406200049d86828701620003f6565b9150509250925092565b7f4e487b7100000000000000000000000000000000000000000000000000000000600052602260045260246000fd5b60006002820490506001821680620004ef57607f821691505b60208210811415620005065762000505620004a7565b5b50919050565b6114f6806200051c6000396000f3fe608060405234801561001057600080fd5b50600436106100a95760003560e01c806370a082311161007157806370a082311461015457806381983cd9146101845780638da5cb5b146101a257806395d89b41146101c0578063a9059cbb146101de578063b6b55f25146101fa576100a9565b806306fdde03146100ae57806318160ddd146100cc5780632e1a7d4d146100ea5780635cb543841461010657806365513fe514610124575b600080fd5b6100b6610216565b6040516100c39190610e47565b60405180910390f35b6100d46102a8565b6040516100e19190610e82565b60405180910390f35b61010460048036038101906100ff9190610ece565b6102b2565b005b61010e6105b0565b60405161011b9190610f7a565b60405180910390f35b61013e60048036038101906101399190610fd3565b6105d4565b60405161014b9190610e82565b60405180910390f35b61016e60048036038101906101699190610fd3565b61061d565b60405161017b9190610e82565b60405180910390f35b61018c610666565b6040516101999190610e82565b60405180910390f35b6101aa610670565b6040516101b7919061100f565b60405180910390f35b6101c8610696565b6040516101d59190610e47565b60405180910390f35b6101f860048036038101906101f3919061102a565b610728565b005b610214600480360381019061020f9190610ece565b610931565b005b60606001805461022590611099565b80601f016020809104026020016040519081016040528092919081815260200182805461025190611099565b801561029e5780601f106102735761010080835404028352916020019161029e565b820191906000526020600020905b81548152906001019060200180831161028157829003601f168201915b5050505050905090565b60006103e8905090565b60008060009054906101000a900473ffffffffffffffffffffffffffffffffffffffff1673ffffffffffffffffffffffffffffffffffffffff166370a08231336040518263ffffffff1660e01b815260040161030e919061100f565b60206040518083038186803b15801561032657600080fd5b505afa15801561033a573d6000803e3d6000fd5b505050506040513d601f19601f8201168201806040525081019061035e91906110e0565b1161039e576040517f08c379a000000000000000000000000000000000000000000000000000000000815260040161039590611159565b60405180910390fd5b3373ffffffffffffffffffffffffffffffffffffffff16600460009054906101000a900473ffffffffffffffffffffffffffffffffffffffff1673ffffffffffffffffffffffffffffffffffffffff16141561042f576040517f08c379a0000000000000000000000000000000000000000000000000000000008152600401610426906111c5565b60405180910390fd5b60003390506000600460009054906101000a900473ffffffffffffffffffffffffffffffffffffffff1690506000600660008473ffffffffffffffffffffffffffffffffffffffff1673ffffffffffffffffffffffffffffffffffffffff168152602001908152602001600020549050838110156104e2576040517f08c379a00000000000000000000000000000000000000000000000000000000081526004016104d990611257565b60405180910390fd5b6104ed828486610ba7565b83600660008573ffffffffffffffffffffffffffffffffffffffff1673ffffffffffffffffffffffffffffffffffffffff168152602001908152602001600020600082825461053c91906112a6565b92505081905550836003600082825461055591906112a6565b925050819055508273ffffffffffffffffffffffffffffffffffffffff167f68577e4d693c1b056a60bc4e39438810239a0bfe64869c4eb7e3baebb5f65634856040516105a29190610e82565b60405180910390a250505050565b60008054906101000a900473ffffffffffffffffffffffffffffffffffffffff1681565b6000600660008373ffffffffffffffffffffffffffffffffffffffff1673ffffffffffffffffffffffffffffffffffffffff168152602001908152602001600020549050919050565b6000600560008373ffffffffffffffffffffffffffffffffffffffff1673ffffffffffffffffffffffffffffffffffffffff168152602001908152602001600020549050919050565b6000600354905090565b600460009054906101000a900473ffffffffffffffffffffffffffffffffffffffff1681565b6060600280546106a590611099565b80601f01602080910402602001604051908101604052809291908181526020018280546106d190611099565b801561071e5780601f106106f35761010080835404028352916020019161071e565b820191906000526020600020905b81548152906001019060200180831161070157829003601f168201915b5050505050905090565b60008060009054906101000a900473ffffffffffffffffffffffffffffffffffffffff1673ffffffffffffffffffffffffffffffffffffffff166370a08231336040518263ffffffff1660e01b8152600401610784919061100f565b60206040518083038186803b15801561079c57600080fd5b505afa1580156107b0573d6000803e3d6000fd5b505050506040513d601f19601f820116820180604052508101906107d491906110e0565b11610814576040517f08c379a000000000000000000000000000000000000000000000000000000000815260040161080b90611159565b60405180910390fd5b3373ffffffffffffffffffffffffffffffffffffffff16600460009054906101000a900473ffffffffffffffffffffffffffffffffffffffff1673ffffffffffffffffffffffffffffffffffffffff16141561091c578060035460056000600460009054906101000a900473ffffffffffffffffffffffffffffffffffffffff1673ffffffffffffffffffffffffffffffffffffffff1673ffffffffffffffffffffffffffffffffffffffff168152602001908152602001600020546108da91906112a6565b101561091b576040517f08c379a00000000000000000000000000000000000000000000000000000000081526004016109129061134c565b60405180910390fd5b5b600033905061092c818484610ba7565b505050565b60008060009054906101000a900473ffffffffffffffffffffffffffffffffffffffff1673ffffffffffffffffffffffffffffffffffffffff166370a08231336040518263ffffffff1660e01b815260040161098d919061100f565b60206040518083038186803b1580156109a557600080fd5b505afa1580156109b9573d6000803e3d6000fd5b505050506040513d601f19601f820116820180604052508101906109dd91906110e0565b11610a1d576040517f08c379a0000000000000000000000000000000000000000000000000000000008152600401610a1490611159565b60405180910390fd5b3373ffffffffffffffffffffffffffffffffffffffff16600460009054906101000a900473ffffffffffffffffffffffffffffffffffffffff1673ffffffffffffffffffffffffffffffffffffffff161415610aae576040517f08c379a0000000000000000000000000000000000000000000000000000000008152600401610aa5906111c5565b60405180910390fd5b60003390506000600460009054906101000a900473ffffffffffffffffffffffffffffffffffffffff169050610ae5828285610ba7565b82600660008473ffffffffffffffffffffffffffffffffffffffff1673ffffffffffffffffffffffffffffffffffffffff1681526020019081526020016000206000828254610b34919061136c565b925050819055508260036000828254610b4d919061136c565b925050819055508173ffffffffffffffffffffffffffffffffffffffff167f20b3fc91390f6ceba342f697a9490734680fd3556633f40efa146f1dbe79d05f84604051610b9a9190610e82565b60405180910390a2505050565b600073ffffffffffffffffffffffffffffffffffffffff168273ffffffffffffffffffffffffffffffffffffffff161415610c17576040517f08c379a0000000000000000000000000000000000000000000000000000000008152600401610c0e90611434565b60405180910390fd5b6000600560008573ffffffffffffffffffffffffffffffffffffffff1673ffffffffffffffffffffffffffffffffffffffff16815260200190815260200160002054905081811015610c9e576040517f08c379a0000000000000000000000000000000000000000000000000000000008152600401610c95906114a0565b60405180910390fd5b8181610caa91906112a6565b600560008673ffffffffffffffffffffffffffffffffffffffff1673ffffffffffffffffffffffffffffffffffffffff1681526020019081526020016000208190555081600560008573ffffffffffffffffffffffffffffffffffffffff1673ffffffffffffffffffffffffffffffffffffffff1681526020019081526020016000206000828254610d3c919061136c565b925050819055508273ffffffffffffffffffffffffffffffffffffffff168473ffffffffffffffffffffffffffffffffffffffff167fd0ed88a3f042c6bbb1e3ea406079b5f2b4b198afccaa535d837f4c63abbc4de684604051610da09190610e82565b60405180910390a350505050565b600081519050919050565b600082825260208201905092915050565b60005b83811015610de8578082015181840152602081019050610dcd565b83811115610df7576000848401525b50505050565b6000601f19601f8301169050919050565b6000610e1982610dae565b610e238185610db9565b9350610e33818560208601610dca565b610e3c81610dfd565b840191505092915050565b60006020820190508181036000830152610e618184610e0e565b905092915050565b6000819050919050565b610e7c81610e69565b82525050565b6000602082019050610e976000830184610e73565b92915050565b600080fd5b610eab81610e69565b8114610eb657600080fd5b50565b600081359050610ec881610ea2565b92915050565b600060208284031215610ee457610ee3610e9d565b5b6000610ef284828501610eb9565b91505092915050565b600073ffffffffffffffffffffffffffffffffffffffff82169050919050565b6000819050919050565b6000610f40610f3b610f3684610efb565b610f1b565b610efb565b9050919050565b6000610f5282610f25565b9050919050565b6000610f6482610f47565b9050919050565b610f7481610f59565b82525050565b6000602082019050610f8f6000830184610f6b565b92915050565b6000610fa082610efb565b9050919050565b610fb081610f95565b8114610fbb57600080fd5b50565b600081359050610fcd81610fa7565b92915050565b600060208284031215610fe957610fe8610e9d565b5b6000610ff784828501610fbe565b91505092915050565b61100981610f95565b82525050565b60006020820190506110246000830184611000565b92915050565b6000806040838503121561104157611040610e9d565b5b600061104f85828601610fbe565b925050602061106085828601610eb9565b9150509250929050565b7f4e487b7100000000000000000000000000000000000000000000000000000000600052602260045260246000fd5b600060028204905060018216806110b157607f821691505b602082108114156110c5576110c461106a565b5b50919050565b6000815190506110da81610ea2565b92915050565b6000602082840312156110f6576110f5610e9d565b5b6000611104848285016110cb565b91505092915050565b7f6e6f74204e4654206d656d626572000000000000000000000000000000000000600082015250565b6000611143600e83610db9565b915061114e8261110d565b602082019050919050565b6000602082019050818103600083015261117281611136565b9050919050565b7f4f776e65722063616e6e6f742065786563757465000000000000000000000000600082015250565b60006111af601483610db9565b91506111ba82611179565b602082019050919050565b600060208201905081810360008301526111de816111a2565b9050919050565b7f416e20616d6f756e742067726561746572207468616e20796f757220746f6b6560008201527f6e42616e6b2062616c616e636521000000000000000000000000000000000000602082015250565b6000611241602e83610db9565b915061124c826111e5565b604082019050919050565b6000602082019050818103600083015261127081611234565b9050919050565b7f4e487b7100000000000000000000000000000000000000000000000000000000600052601160045260246000fd5b60006112b182610e69565b91506112bc83610e69565b9250828210156112cf576112ce611277565b5b828203905092915050565b7f416d6f756e74732067726561746572207468616e2074686520746f74616c207360008201527f7570706c792063616e6e6f74206265207472616e736665727265640000000000602082015250565b6000611336603b83610db9565b9150611341826112da565b604082019050919050565b6000602082019050818103600083015261136581611329565b9050919050565b600061137782610e69565b915061138283610e69565b9250827fffffffffffffffffffffffffffffffffffffffffffffffffffffffffffffffff038211156113b7576113b6611277565b5b828201905092915050565b7f5a65726f20616464726573732063616e6e6f742062652073706563696669656460008201527f20666f722027746f272100000000000000000000000000000000000000000000602082015250565b600061141e602a83610db9565b9150611429826113c2565b604082019050919050565b6000602082019050818103600083015261144d81611411565b9050919050565b7f496e73756666696369656e742062616c616e6365210000000000000000000000600082015250565b600061148a601583610db9565b915061149582611454565b602082019050919050565b600060208201905081810360008301526114b98161147d565b905091905056fea2646970667358221220cd9835499ccb21d39000a50d5437a46c4a7ccba32112804b860809751398de5b64736f6c63430008090033",
  "linkReferences": {},
  "deployedLinkReferences": {}
}